:0200000280007C
:10000000008008207506080089120800891208007F
:1000100089120800891208008912080000000000F7
:100020000000000000000000000000008B1208002B
:1000300089120800000000008F12080093120800C7
:100040008912080089120800891208008912080024
:100050008912080089120800891208008912080014
:100060004D0108008912080000000000E911080095
:100070001112080039120800611208000000000087
:1000800000000000610108006D01080089120800ED
:1000900079010800891208008912080089120800F5
:1000A0008912080000000000891208008912080067
:1000B00089120800891208008912080089120800B4
:1000C00089120800891208008912080089120800A4
:1000D0008912080089120800891208008912080094
:1000E000BD0708008912080089120800891208005B
:1000F0008912080010B5054C237833B9044B13B1AD
:100100000448AFF300800123237010BD880407204A
:1001100000000000E82A080008B5064B1BB106489D
:100120000649AFF300800648036813B1054B03B1DD
:10013000984708BD00000000E82A08008C0407204A
:10014000E82A08000000000070470000014800F0A5
:10015000B3BC00BFB405072070477047704700006C
:10016000014800F0A9BC00BF60060720014800F06C
:10017000A3BC00BF88060720014800F09DBC00BF5B
:10018000B00607202DE9F041404D00F025FA2B681C
:100190004FF47A72B3FBF2F35A1E3D4BF0215A60D2
:1001A0003C4A002482F8231007229C603A481A60D7
:1001B00000F00EFA01F0EAFCA846204600210134C6
:1001C00001F0C0F84F2CF8D1344C354E354F364B3A
:1001D0004FF0FF35C4F8A0504FF44072C6F8A0505D
:1001E0002046C3F8A05001210023C7F8A05000F01A
:1001F00045F90020012101F0A5F8204601214FF426
:100200004062002300F03AF9204601214FF44052A9
:10021000002300F033F9384602213022002300F099
:100220002DF9304601214FF44062002300F026F9F9
:10023000204601210322002300F020F901214FF480
:1002400040420023304600F019F9252000F068F9FB
:10025000D8F80010154A0C23154800F043FA012382
:10026000134800214FF4401200F094FA00210A468E
:100270000F4800F087FA29460D4800F09CFA0C4818
:1002800000F095FABDE8F04101F020B82C000720FD
:1002900010E000E000ED00E0501A0E40000E0E40AD
:1002A00000100E4000140E4000120E40002D3101CF
:1002B00000000C402DE9F743234D244C284600F064
:1002C0000FFB204600F00CFBDFF8B4900822134629
:1002D0001F49009501941F4F1F4800F09FFB1F4DC1
:1002E000484600F0FDFADFF89C80384600F0F8FA46
:1002F0001B4E284600F0F4FA1A4C404600F0F0FA83
:10030000304600F0EDFA204600F0EAFA11221346DA
:10031000CDF80090CDF804801349144800F0FEFB9E
:1003200012221346009701961149124800F0F6FB7D
:1003300014220095019410491346104800F0EEFB7A
:1003400003B0BDE8F08300BFD80507202C050720C7
:1003500000080E4070080720B4050720F8080720A1
:10036000D8060720600707200080094060060720A4
:1003700000C009408806072000400A40B006072058
:10038000E8070720A404072008B50C4800F0C6FAC7
:1003900008B1FFF7D9FE0A4800F0C0FA08B1FFF72C
:1003A000DBFE084800F0BAFA08B1FFF7D6FE0648AF
:1003B00000F0B4FA08B1FFF7D1FE08BDB40507207C
:1003C0006006072088060720B006072041647047B2
:1003D0000AB14166704701667047426405290FD82B
:1003E000DFE801F00F030A0F0F0F036F016F01EA3F
:1003F000030323EA020302E0036F42EA03030367F5
:100400004260704770B50D4B04460D46164698473E
:100410002046294606F00102094B984716F00A0FBC
:1004200014BF2562656216F0020F02D116F0080FA4
:1004300001D0C4F880506561256070BDCD0308000F
:10044000D1030800F8B504460D461F46094B164671
:10045000984720462946069A074B98470FB12565CD
:1004600000E065650EB1256300E0656325612560E8
:10047000F8BD00BFCD030800D1030800F7B51F4643
:100480004B1E05460E461446042B25D8DFE803F024
:100490000303101616002246104B984728462146A3
:1004A0000F4B98472846214607F001020D4B02E00A
:1004B0000D4B21463A46984701200EE007F0010314
:1004C0000093A6F105035A42214642EB0302074C72
:1004D000C7F38003A047EFE70020FEBDDB03080061
:1004E000CD030800D10308000504080045040800F6
:1004F00083680B4005D0836919420CBF002001209E
:100500007047184670470000044B4FF44412DA61FC
:10051000024B9B6E13F0400FFAD0704700060E405E
:100520002C281AD81F280F4B4FF0010208D812FAB6
:1005300000F0996900EA010282420CD018610AE0D9
:10054000203812FA00F0D3F8081100EA01028242C2
:1005500005D0C3F80001002070470120704700203B
:10056000704700BF00060E402C281AD81F280F4BDA
:100570004FF0010108D811FA00F09A6900EA02026E
:1005800082420CD15A610AE0203811FA00F0D3F807
:10059000082100EA0202824205D1C3F804210020AA
:1005A0007047012070470020704700BF00060E40D2
:1005B000020202F47062024B42F001029A63704739
:1005C00000060E40014B20221A60704700060E40C4
:1005D0004FF40043436070471E4A4FF4806313603A
:1005E0001D4A13601D4B1A6A12F0807F06D11C4A07
:1005F0001A621A4B9B6E13F0010FFAD0194A174B6F
:100600001A62164B9A6E12F4803FFAD01A6B22F0DF
:10061000030242F001021A63104B9A6E12F0080FA7
:10062000FAD0114A9A620D4B9A6E12F0020FFAD06C
:1006300011221A63094B9A6E12F0080FFAD0122297
:100640001A63064B9B6E13F0080FFAD0074A084B4B
:100650001A607047000A0E40000C0E4000060E4063
:100660000908370009083701013F0D2000BD0105C9
:100670002C00072008B5134A134B9A4205D1134B9F
:100680000AE052F8041B43F8041B11498B42F8D3CB
:10069000F5E7002243F8042B0E4A9342F9D30E49A2
:1006A0000E4B21F0604201F1604122F07F02B1F572
:1006B000801F9A6003D29A6842F000529A60084BF9
:1006C0009847FEE7E82A0800000007208804072072
:1006D00088040720800E07200000080000ED00E0DD
:1006E0009D0808002DE9F041244D90B06C46064667
:1006F0000F46944698460FCD0FC40FCD0FC40FCDB3
:100700000FC495E80F0084E80F000123336040F226
:100710000222013B4FEA4C0C7360C6F82021B7FB64
:10072000FCF2C6F80431C6F814310CFB127303B99D
:10073000013A531C5B00B7FBF3F7114BADF1040119
:10074000B7FBF3F708FB07F8002351F8040F404507
:100750000BD3716812061B0441EA124203F47023A2
:1007600042EA03037360002004E00133102BECD154
:100770004FF0FF3010B0BDE8F08100BF94270800B3
:1007800040420F0043681943D30103F0FF031943AC
:100790004160704710B544681B0722430C0604F003
:1007A0007064224303F040531A43426010BD4FF679
:1007B000FF734361704781627047000008B5024BC8
:1007C0001B6803B1984708BD8009072010B50024B5
:1007D000064B0021E05800F0B5FD054B0021E05824
:1007E000043400F0AFFD0C2CF2D110BD3C0007200A
:1007F0003000072010B500240A4B0121E05800F01A
:100800006FFD094B0121E058043400F069FD0C2C08
:10081000F2D1FFF7DBFF054B042202211A70597059
:100820009A7010BD3C000720300007208409072083
:1008300073B500240190FFF7C9FF104B012153F855
:10084000240000F07FFD0025022601AB195D0C4B52
:10085000314111F00101585918BF0121043500F050
:1008600071FD0C2D06F1FF36EFD10320013400F0AD
:100870001FFD032CDFD102B070BD00BF3000072088
:100880003C000720044B1A785978987842EA0122F4
:1008900042EA0040FFF7CCBF8409072008B5FFF704
:1008A00071FC012000F004FD064800F075FAFFF726
:1008B000A1FFFFF7E7FF044B002BFAD0FFF764FD21
:1008C000F7E700BF9C0907208903080008B500214D
:1008D0000322024801F082F908BD00BF8409072005
:1008E00010B500218022044601F078F90023C4F8F5
:1008F00080302046C4F8843010BDD0F88030D0F865
:100900008420013303F07F03934204D0D0F8802089
:100910008154C0F880307047012070470369D3F8D4
:100920008000D3F88430C01A00F07F00704703695C
:10093000D3F88010D3F8842091421DBFD3F88420CF
:10094000985CC0B24FF0FF3070470369D3F8801055
:10095000D3F8842091420AD0D3F88420985CD3F84D
:100960008420013202F07F02C3F8842070474FF0E8
:10097000FF3070474369D3F88010D3F88420914248
:10098000F9D1826953699B07FCD57047836970B5BB
:100990005E694269B607D2F88450D2F8804001D52A
:1009A000A54218D0D2F880400C4B01342340002BD4
:1009B00003DA013B63F07F030133D2F884409C42A9
:1009C000FBD0D2F8804011554269C2F8803083696B
:1009D00002229A6000E0D961012070BD7F00008092
:1009E000036910B5D3F884200446C3F88020036857
:1009F0005B699847237F012259B203F01F0302FA73
:100A000003F34909044A203142F82130206ABDE845
:100A10001040FFF7A9BD00BF00E100E030B50025A0
:100A200045604FF47A758560044D81610560039DD2
:100A300002770561049D0362456130BDE02708002F
:100A400070B50446006A0D461646FFF769FDA369B6
:100A500040F20222C3F82021AC221A60124A5E60E2
:100A600012680121B2FBF5F52D094FF0FF321D622E
:100A7000DA6061229A60227F50B202F01F0201FA0E
:100A800002F20A49400941F8202021690022C1F8F8
:100A90008420C1F880206169C1F88420C1F88020D9
:100AA00050221A6070BD00BF2C00072000E100E05A
:100AB0004FF40062FFF7C4BF38B5836904465D692F
:100AC000EA0704D599690069C9B2FFF716FFAB07B9
:100AD00016D56369D3F88410D3F880209142A269B7
:100AE0000CD0D3F88410595CC9B2D161D3F88420FA
:100AF000013202F07F02C3F8842001E00223D360B8
:100B000015F0600F04D0A3691A6842F480721A606D
:100B100038BD4FF40C62FFF793BF000073B5069D1C
:100B200004460095079D0E460195FFF777FF034B9E
:100B300020462360666202B070BD00BF1028080026
:100B4000064BD3F83021D20703D45B68D90703D40E
:100B5000F6E70122C3F86021704700BF00C00A40D9
:100B600038B5094B1D6872B6BFF35F8F1C4600F0A5
:100B70000F000023236000F0BFFF25B10123236095
:100B8000BFF35F8F62B638BD580007202DE9F843E8
:100B90001B4B89461B6815463BB31A4BD3F80080A4
:100BA00072B6BFF35F8F00F00F04002620461F4689
:100BB0001E6000F0A1FFA84238BF0546AE4206D035
:100BC000204600F061FF09F806000136F6E71DB186
:100BD000204600F091FF78B1B8F1000F09D0012351
:100BE0003B60BFF35F8F62B603E04FF0FF30BDE8BC
:100BF000F8832846BDE8F883204600F08BFFEBE73A
:100C0000A40907205800072007B501220DF10701AC
:100C100000F00F00FFF7BAFF01280CBF9DF8070096
:100C20004FF0FF3003B05DF804FB0000114B2DE9DD
:100C3000F0411B6880460D461746B3B114468CB18F
:100C4000B8F1000F14BF4FF400764026A64228BF2B
:100C50002646294608F00F003246A41B00F0B8FED5
:100C60003544ECE73846BDE8F0814FF0FF30BDE891
:100C7000F08100BFA40907202DE9F04115460C4F73
:100C80000C4A3B681268884693420BDA2C460026D1
:100C900044B108EB06012246002000F099FE06440C
:100CA000241AF5E73B6828462B443B60BDE8F081F9
:100CB000880907208C09072030B50123A1B0C2188C
:100CC00012F8014C5A0064B942F44073694600209E
:100CD000ADF80030FFF7D0FF003018BF012021B081
:100CE00030BD8D1A002DEFDD2DF802400133E6E70F
:100CF00038B50C46054600F039FE0020294622464C
:100D000000F0D6FE00F048FE204638BD03790BB94E
:100D100000F01CBC022B01D100F090BC00207047F9
:100D200013B5002302AC04F8013D204600F0FAFBA5
:100D3000204600F059FC9DF8070002B010BD13B525
:100D4000002302AC04F8013D204600F0F5FB2046EC
:100D500000F04AFC9DF8070002B010BD10B5044633
:100D600000F0CAFE20B12046BDE8104000F0E8BE09
:100D700010BD000010B50446054800F023FD00F04A
:100D800027FD10B9034B01221A60204610BD00BF99
:100D9000C50D08009809072008B5054B186828B14B
:100DA00000F07EFD034B00221A60012008BD00BF49
:100DB00098090720A40907200148FFF7DBBF00BFFF
:100DC0009C0907202DE9F047AD4C86B063681F07EA
:100DD00017D52368002023F07F032360236842F2A5
:100DE000320143F08003236000F080FDA54B042214
:100DF0001A604FF48053A361A34B00221A600823AA
:100E0000A3609F4B5B685E0408D5A04B022018606E
:100E1000FFF7A6FE10B19E4800F036FB984B5A68CB
:100E2000550744BF04229A605B68DC0440F1CB8123
:100E300000F0BEFD002800F0C681002001A90822B4
:100E400000F036FE00F0BCFD9DF80450280602D5E7
:100E500000F082FD01E000F093FD15F0600440F029
:100E60009D819DF8053073B99DF80440ACB1894B64
:100E70001B780020012B14BF0146012100F0F0FD7A
:100E80000020014680E1012B0DD19DF80630012B99
:100E900001D1814BECE77F4B1C702046214600F0CE
:100EA000DFFD2046EDE7032B75D19DF80630012BC1
:100EB00005D1794A20462146137000F0D1FD9DF8F6
:100EC000060028B9734B012201461A7000F0C8FDD4
:100ED0009DF80630022B40F06E819DF80430002B07
:100EE00040F06981BDF80830190740F06481644C16
:100EF0001B0A6269013B22F001026261226842F42E
:100F000000622260032B00F25681DFE803F03138E3
:100F10003F02FFF715FE0023C4F81833C4F8283346
:100F200041F23013C4F80831D4F8083143F0020319
:100F3000C4F80831524BD3F838215203FAD5DA6994
:100F400042F00402DA61554B554A9A5C03F8012FCE
:100F5000544A9342F8D14A4B1A6842F400421A604C
:100F60000122C3F868214FF48042C3F82822FEE72B
:100F7000FFF7E6FD236843F400532360FEE7FFF725
:100F8000DFFD236843F480432360FEE7FFF7D8FDCD
:100F9000454B6361FEE7052B06D100F0DDFC9DF8B3
:100FA000060000F0E3FD06E1062B40F0CA809DF844
:100FB00007603E4F022E9DF80630BDF80A50DFF85C
:100FC00008813C6029D1C8F80040FFF7A9FE4FF026
:100FD0000909824621464A4603A800F0FFFD012385
:100FE0008DF81130C0238DF81330FA238DF81430AA
:100FF0003B6803A94B444A462046ADF80E308DF8B5
:101000000C908DF80D608DF810A03C60C8F8005071
:10101000FFF732FEFFF784FECDE0222EC8F8005025
:1010200006D1304600F0EAFA003018BF0120C1E0D6
:10103000012E0ED1082D1E4B04BF01221A60196823
:101040001C4A1D4B002914BF11461946112D73D897
:1010500013E0032E3AD123B918490B78AB420CD8D0
:101060006AE0022B01D1164803E0012B40F0A68074
:1010700014482946FFF720FE9CE0EAB25BE000BF7F
:1010800000C00A40F0C10A40A409072068C10A4014
:10109000040E07208709072094090720FFFF182066
:1010A0007128EFDF340019207FF0077E88090720C0
:1010B00090090720B1280800442808006C2808007F
:1010C00038280800A52808008C090720062E04D11E
:1010D000092D76D8EAB23D492DE0072E4FF00004E5
:1010E0006CD1C8F80040FFF72AFE4FF0090982468C
:1010F00021464A4603A800F071FD01238DF8113006
:10110000C0238DF81330FA238DF814303B6803A9FF
:101110004B444A462046ADF80E308DF80C908DF8C1
:101120000D608DF810A03C60C8F80050FFF7A4FDDA
:10113000FFF705FE3FE002B90A780020FFF79CFDAB
:1011400039E0072B3AD0082B04D1214B20461968EF
:10115000C9B219E0092B12D1EB062FD11D48052188
:1011600000F0DCFB9DF80620194B1A601A4B022296
:101170001A604FF48042A3F5FC739A611BE00A2BBE
:1011800005D1164B0020197800F06AFC13E00B2BF8
:1011900011D19DF80620114B1A600CE000F0DCFB29
:1011A0000F4B00211960BDF80A200E4B01A81A60F0
:1011B000FFF7ACFD10B100F0E3FB04E000F092FC9F
:1011C00001E00249B8E706B0BDE8F087C32808008F
:1011D000A409072058280800F8C10A40A0090720E0
:1011E000880907208C09072038B5074B0024DD6CDF
:1011F000EB0703D5054BE35803B198470434802C23
:101200004FEA5505F4D138BD000E0E40A80907205D
:1012100038B5074B0024DD6CEB0703D5054BE358CD
:1012200003B198470434802C4FEA5505F4D138BDFA
:1012300000100E40280A072038B5074B0024DD6C4B
:10124000EB0703D5054BE35803B198470434802CD2
:101250004FEA5505F4D138BD00120E40A80A072008
:1012600038B5074B0024DD6CEB0703D5054BE3587D
:1012700003B198470434802C4FEA5505F4D138BDAA
:1012800000140E40280B0720FEE700F010B800F015
:101290000EB808B500F009F828B900F097F8BDE8D5
:1012A000084000F081BA08BD704700207047FEE793
:1012B00038B5044648B100F07FFA0546FFF7F4FF61
:1012C00000F07AFA401BA042F8D338BD0023034A4D
:1012D0000021995401334F2BF9D17047A80B0720F7
:1012E00070B51C254543164E7419237B3BB3012969
:1012F00016D002D3022908D070BDA068FFF710F9FC
:10130000705903216268002306E0A068FFF708F91E
:101310007059626803210123BDE87040FFF7AEB841
:1013200075592369284605216268FFF7A7F8AB695C
:10133000013304D1A068BDE87040FFF715B970BD56
:10134000681D08001C2273B550430F4B0E461A1837
:10135000117BB1B11D58546828462146FFF7C8F8E3
:1013600038B928462146324602B0BDE87040FFF742
:101370002FB8012300932846214632460023FFF769
:1013800061F802B070BD00BF681D0800F8B50646E0
:101390000C468F180025BC4207D0336830461B68C6
:1013A00014F8011B98470544F5E72846F8BD0000EE
:1013B000014B1860704700BF48000720024B4FF0F8
:1013C000FF321A60704700BF48000720054A08B581
:1013D0001368591C04D0013B13600BB9024B9847AA
:1013E00008BD00BF4800072001000720044BD3F8C8
:1013F0000002D3F80432C01AC0F30800704700BFDF
:10140000F80B0720064BD3F80012D3F804229142C0
:101410001ABFD3F80422985C4FF0FF30704700BF2A
:10142000F80B072013B5026802AB03F8011D5468DE
:1014300019460122A04702B010BD000038B50F4B7D
:101440000446D3F80012D3F80422914213D0D3F803
:10145000042202209D5CD3F804220132C2F3080268
:10146000C3F80422FFF77CFB18B1236820469B6970
:101470009847284638BD4FF0FF3038BDF80B07209D
:101480000320FFF76BBC0000F8B5184B53E8003F92
:10149000164E13B1BFF32F8FF8BD012346E800337A
:1014A000002BF2D1124BD3F800421F460134C4F393
:1014B0000804D7F804320E4D9C4214D00220FFF7E6
:1014C0004FFB20B90B4B4FF480421A600BE0022017
:1014D000FFF79AFBD5F80032C5F800420134E85412
:1014E000C4F30804E5E700233360F8BD000E0720CD
:1014F000F80B072028C20A4010B5094B0446DB79D7
:1015000003F0FF0043B10320FFF790FB002805DC48
:1015100001236360002010BD0123636010BD00BF84
:101520004C00072003780349023303704222002055
:10153000FFF7A2BB42290800037803490233037076
:1015400042220020FFF798BB0029080008B5027866
:101550004378A12A08D1212B4FF0000020D1134954
:101560000722FFF789FB1EE0212A1AD1202B04D184
:1015700007210E48FFF7BCFB15E0222B11D1827822
:101580000A4BDA711A68B2F5966F0CD1DB79DB077A
:1015900003D4FA20FFF70CFF05E0FFF70FFF02E08E
:1015A00008BD002008BD012008BD00BF4C00072079
:1015B000044B00225A604FF47A729A60024A1A6011
:1015C000704700BF040E0720E0280800036870B5CC
:1015D0009B6804460E46984723680546DB6820460C
:1015E00031469847E8B270BD037803490133037070
:1015F00019220020FFF740BB282A080000200249DA
:101600006522FFF739BB00BF412A080000B591B041
:101610008DF800000023934203F1010305D0C818A0
:1016200010F8010C0DF80300F5E769461A4604208E
:10163000FFF7FCFA11B05DF804FB00000278437874
:10164000A12A05D1012B11D0033B584258417047C4
:10165000212A0DD10B2B02D18278064B03E00A2BF5
:1016600006D18278044B1A700120704718467047E3
:1016700000207047540007205500072008B50220BD
:101680000822FFF7C3FF08BD872910B502D97831BA
:10169000C9B215E00A0608D50123803903FA01F121
:1016A000037A1943017200210AE0184B595C49B3CF
:1016B0000B0605D5037A01F07F0143F002030372A4
:1016C000837A8B4218D0C37A8B4215D0037B8B422E
:1016D00012D0437B8B420FD0837B8B420CD0C37BD9
:1016E0008B4209D00023C218947A0CB9917203E09E
:1016F0000133062BF7D105E000F10801FFF7BEFF2B
:10170000012010BD01234360002010BDA82908005E
:10171000872910B502D97831C9B216E00A0609D571
:101720000123803903FA01F1037A23EA01010172EE
:1017300000210AE00E4B595CC1B10B0605D5037AB6
:1017400001F07F0123F002030372002329B1C218C4
:10175000947A8C4204BF002494720133062BF5D195
:1017600000F10801FFF78AFF012010BD084610BDF7
:10177000A8290800002301468372C37203734373D0
:101780008373C37301F8083FFFF778BF034B002250
:101790001A70034B5A60034A1A607047180E0720EC
:1017A0001C0E072090290800024B1A6801321A60AB
:1017B000704700BF2C0E0720014B1868704700BF10
:1017C0002C0E0720014B1860704700BF80090720CE
:1017D00010B500232A4A002442F82340294A42F83F
:1017E000234001330A2BF5D12820274B9847274B5C
:1017F00098472046264B9847264B9847264B4FF450
:10180000807283F828435A60244B2046D3F800287E
:1018100022F08072C3F80028D3F8002842F000724A
:10182000C3F80028D3F8002822F08072C3F80028FB
:10183000D3F8002822F48052C3F80028D3F80028F7
:1018400042F48052C3F80028D3F8002842F4004242
:10185000C3F80028D3F8002822F48042C3F80028F7
:101860001A6822F480521A601A6822F440621A60E0
:10187000D3F8002842F48042C3F8002810BD00BF0E
:10188000580E0720300E0720210508000905080022
:10189000B1050800C505080000E100E000C00A40ED
:1018A000104B196872B6BFF35F8F00221A600E4AA0
:1018B000D2F8000820F48040C2F800081A460A4B0B
:1018C000D3F8040810F4804FF9D0186820F4807021
:1018D00018600820986121B101231360BFF35F8F66
:1018E00062B670475800072000C00A40094B00F05C
:1018F0000F0000F1400243F8221001228240D96912
:101900000A43DA61044B53F8203013F4802F00D1DE
:10191000FEE7704700C00A4030C10A4070B501239D
:101920000B4C12E00B4A50F8046F03F1400542F8EB
:10193000256001259D40D6693543D56154F8042BB7
:1019400012F4802F00D1FEE701338B42EAD370BD41
:1019500034C10A4000C00A40034BD3F8303113F0C1
:10196000010FF9D0704700BF00C00A40034BD3F805
:10197000303113F0020FF9D0704700BF00C00A40A9
:10198000034B0122C3F86021024B013A1A607047F1
:1019900000C00A40580E0720034B0222C3F8602102
:1019A000024B023A1A60704700C00A40300E07200E
:1019B000024BD3F8300100F00400704700C00A4029
:1019C000024B0422C3F86021704700BF00C00A40E8
:1019D00070B51546C20302F10052034602F5C0126B
:1019E0001C4803F14C0450F8240010F0010FF7D00C
:1019F000194C3BB920682818402806D92568C5F13C
:101A0000400502E0002044F8230054F82300101899
:101A1000002202E08E5C86540132AA42FAD154F8C8
:101A20002320AA1844F8232033B90B4B1B68402B02
:101A30000DD10A4B98470AE0064A03F158010120EC
:101A400042F8210088334FF4804142F823102846A1
:101A500070BD00BF00C00A40580E07208119080061
:101A6000084B10B553F82020C403A21802F100520D
:101A700002F5C012117053F82020013243F82020E3
:101A800010BD00BF580E0720084A034652F8201028
:101A9000C003411801F1005101F5C011087852F856
:101AA0002310013142F82310704700BF300E072089
:101AB00070B50B4CC30303F1005354F8205003F5E9
:101AC000C0135D19002302E0EE5CCE540133934253
:101AD000FAD154F820209B1844F8203070BD00BF84
:101AE000300E0720034B0122DA614FF40022C3F8C5
:101AF000F021704700C00A40044B4C3053F82030AE
:101B0000034803EA0000000D704700BF00C00A4010
:101B10000000F07F084B00F15802022143F8221028
:101B200000F188024FF4804143F82210034B002259
:101B300043F82020704700BF00C00A40300E072045
:101B4000084B00F15802012143F8221000F18802ED
:101B50004FF4804143F82210034B002243F8202029
:101B6000704700BF00C00A40580E0720064B00F027
:101B70007F001A6822F07F0240EA02021A601A68A7
:101B800042F080021A60704700C00A4070B50F4EE4
:101B90000F4D761BB61007D0043D0024013455F8D4
:101BA000043F9847A642F9D10A4E0B4D00F080FF42
:101BB000761BB61008D0043D0024013455F8043FCC
:101BC0009847A642F9D170BD70BD00BFBC2A08007D
:101BD000BC2A0800D82A0800BC2A0800F0B48407F0
:101BE00043D0541E002A3ED0CDB2034603E0621E0D
:101BF000002C38D0144603F8015B9A07F7D1032C68
:101C00002AD9CDB245EA05250F2C45EA054515D957
:101C1000A4F110073F0903F1100606EB07161A4658
:101C2000156055609560D5601032B242F8D104F06D
:101C30000F040137032C03EB07130DD91E46224670
:101C4000043A032A46F8045BFAD8221F22F0030262
:101C50000432134404F003042CB1C9B21C4403F849
:101C6000011BA342FBD1F0BC704714460346C6E7F4
:101C7000024B13B1024800F005B8704700000000A5
:101C8000911C0800014600200246034600F018B8E7
:101C900038B5094D094C641BA41018BF05EB840529
:101CA00005D0013C55F8043D9847002CF9D1BDE81A
:101CB000384000F011BF00BFE42A0800E82A0800FD
:101CC000F0B5274C85B026680746D6F84841002C69
:101CD00040D065681F2D1EDD224818B94FF0FF3037
:101CE00005B0F0BD4FF4C870039102920193AFF3B9
:101CF000008003990446029A019B0028EED0D6F892
:101D000048510020256060600546C6F84841C4F887
:101D10008801C4F88C013FB96B1C00200235636058
:101D200044F8251005B0F0BD0126AE4004EB850057
:101D3000C0F88820D4F88821022F42EA0602C4F8AD
:101D40008821C0F80831E7D1D4F88C311E43C4F89B
:101D50008C61E1E706F5A674C6F84841B9E700BF13
:101D6000AC2A080000000000000E0E400001000038
:101D70000B00000001000000000000000400000053
:101D8000FFFFFFFF000E0E40000200000B000000EE
:101D9000010000000000000004000000FFFFFFFF42
:101DA00000100E40000000020C00000002000000C5
:101DB0000000000014000000FFFFFF0000120E40B2
:101DC000000000100D0000000200000000000000F4
:101DD00014000000FFFFFF0E00120E400000000480
:101DE0000D000000020000000000000014000000D0
:101DF000FFFFFF0D00120E40000000020D0000006A
:101E0000020000000000000014000000FFFFFF0CB3
:101E100000120E40000000010D0000000200000052
:101E2000000000000C000000FFFF07FF00120E4042
:101E3000000080000D000000020000000000000013
:101E40000C000000FFFF06FF00120E4000004000E3
:101E50000D00000002000000000000000C00000067
:101E6000FFFF05FF00120E40000020000D000000E3
:101E700002000000000000000C000000FFFF04FF53
:101E800000120E40000000200D00000002000000C3
:101E90000000000014000000FFFFFF0F00140E40C0
:101EA000800000000E0000000200000000000000A2
:101EB00014000000FFFFFF1000140E40000100009E
:101EC0000E000000020000000000000014000000EE
:101ED000FFFFFF1100100E40000000080C00000082
:101EE000020000000000000014000000FFFFFF01DE
:101EF00000140E40100000000E0000000200000060
:101F00000000000004000000FFFFFFFF00140E406F
:101F1000200000000E000000020000000000000091
:101F200004000000FFFFFFFF000E0E400020000035
:101F30000B00000001000000000000000400000091
:101F4000FFFFFFFF000E0E40001000000B0000001E
:101F5000010000000000000004000000FFFFFFFF80
:101F6000000E0E40000800000B0000000100000001
:101F70000000000004000000FFFFFFFF000E0E4005
:101F8000000400000B000000010000000000000041
:101F900004000000FFFFFFFF00100E4000100000D3
:101FA0000C00000001000000000000000400000020
:101FB000FFFFFFFF00100E40002000000C0000009B
:101FC000010000000000000004000000FFFFFFFF10
:101FD00000100E40000000040C000000040000008F
:101FE0000000000004000000FFFFFFFF000E0E4095
:101FF000004000000B000000040000000000000092
:1020000004000000FFFFFFFF000E0E4000800000F4
:102010000B000000040000000000000004000000AD
:10202000FFFFFFFF00140E40010000000E00000043
:10203000040000000000000004000000FFFFFFFF9C
:1020400000140E40020000000E000000040000001A
:102050000000000004000000FFFFFFFF00140E401E
:10206000040000000E00000004000000000000005A
:1020700004000000FFFFFFFF00140E4008000000F6
:102080000E0000000400000000000000040000003A
:10209000FFFFFFFF00140E40400000000E00000094
:1020A000040000000000000004000000FFFFFFFF2C
:1020B00000140E40000200000E00000004000000AA
:1020C0000000000004000000FFFFFFFF000E0E40B4
:1020D000800000000B000000040000000000000071
:1020E00004000000FFFFFFFF00140E40000400008A
:1020F0000E000000040000000000000004000000CA
:10210000FFFFFFFF00120E40020000000D00000064
:10211000040000000000000004000000FFFFFFFFBB
:1021200000120E40040000000D000000040000003A
:102130000000000004000000FFFFFFFF00120E403F
:10214000080000000D000000040000000000000076
:1021500004000000FFFFFFFF00120E40100000000F
:102160000D0000000400000000000000040000005A
:10217000FFFFFFFF00120E40200000000D000000D6
:10218000040000000000000004000000FFFFFFFF4B
:1021900000120E40400000000D000000040000008E
:1021A0000000000004000000FFFFFFFF00120E40CF
:1021B000800000000D00000004000000000000008E
:1021C00004000000FFFFFFFF00120E4000010000AE
:1021D0000D000000040000000000000004000000EA
:1021E000FFFFFFFF00120E40000200000D00000084
:1021F000040000000000000004000000FFFFFFFFDB
:10220000000E0E40000008000B000000040000005B
:102210000000000004000000FFFFFFFF000E0E4062
:10222000000010000B00000004000000000000008F
:1022300004000000FFFFFFFF00120E400000080036
:102240000D00000004000000000000000400000079
:10225000FFFFFFFF00120E40000004000D00000011
:10226000040000000000000004000000FFFFFFFF6A
:1022700000120E40000002000D00000004000000EB
:102280000000000004000000FFFFFFFF00120E40EE
:10229000000001000D00000004000000000000002C
:1022A00004000000FFFFFFFF00120E40008000004E
:1022B0000D00000004000000000000000400000009
:1022C000FFFFFFFF00120E40004000000D00000065
:1022D000040000000000000004000000FFFFFFFFFA
:1022E00000120E40002000000D000000040000005D
:1022F0000000000004000000FFFFFFFF00120E407E
:10230000001000000D0000000400000000000000AC
:1023100004000000FFFFFFFF00100E40000020003F
:102320000C00000004000000000000000400000099
:10233000FFFFFFFF00100E40004000000C000000F7
:10234000040000000000000004000000FFFFFFFF89
:10235000000E0E40000001000B0000000300000012
:1023600000000000020000000007FFFF000E0E400A
:10237000000000010B00000003000000000000004E
:10238000020000000106FFFF000E0E40000080006A
:102390000B0000000300000000000000020000002D
:1023A0000205FFFF000E0E40000040000B00000081
:1023B0000300000000000000020000000304FFFF13
:1023C000000E0E40400000000B0000000300000063
:1023D00000000000020000000403FF05000E0E4094
:1023E000100000000B0000000300000000000000CF
:1023F000020000000502FFFF000E0E400800000072
:102400000B000000030000000000000002000000BC
:102410000601FF03000E0E40040000000B00000048
:102420000300000000000000020000000700FF029F
:1024300000100E40000002000C000000030000002D
:102440000000000002000000080AFFFF00100E401C
:10245000000004000C000000030000000000000069
:1024600002000000090BFFFF00100E4000000800F2
:102470000C0000000300000000000000020000004B
:102480000A0CFFFF00100E40000010000C000000BE
:102490000300000000000000020000000B0DFFFF21
:1024A00000100E40008000000C000000030000003F
:1024B00000000000020000000C10FFFF00100E40A2
:1024C000000001000C0000000300000000000000FC
:1024D000020000000D11FFFF000E0E400200000080
:1024E0000B000000010000000000000004000000DC
:1024F0000EFFFFFF000E0E40010000000B00000069
:102500000100000000000000040000000FFFFFFFBA
:10251000000E0E40000002000B0000000100000051
:102520000000000004000000FFFFFFFF000E0E404F
:10253000000004000B00000001000000000000008B
:1025400004000000FFFFFFFF00120E4000000040EB
:102550000D00000004000000000000000400000066
:10256000FFFFFFFF000E0E40000020000B000000E8
:10257000040000000000000004000000FFFFFFFF57
:10258000000E0E40000000020B00000001000000E1
:102590000000000004000000FFFFFFFF000E0E40DF
:1025A000000000040B00000001000000000000001B
:1025B00004000000FFFFFFFF000E0E4000000008B7
:1025C0000B000000010000000000000004000000FB
:1025D000FFFFFFFF000E0E40000000100B00000088
:1025E000010000000000000004000000FFFFFFFFEA
:1025F00000100E40000080000C00000002000000EF
:102600000000000004000000FFFFFFFF000E0E406E
:10261000000006000B0000000100000000000000A8
:1026200005000000FFFFFFFF00100E40003000001B
:102630000C00000001000000000000000500000088
:10264000FFFFFFFF000E0E40000300000B00000024
:10265000010000000000000005000000FFFFFFFF78
:10266000000E0E40000C00000B00000001000000F6
:102670000000000005000000FFFFFFFF000E0E40FD
:10268000003000000B00000001000000000000000E
:1026900005000000FFFFFFFF00140E4030000000A7
:1026A0000E00000002000000000000000500000015
:1026B000FFFFFFFF00100E40000C00000C000000A8
:1026C000010000000000000004000000FFFFFFFF09
:1026D00000100E40000020000C000000020000006E
:1026E0000000000004000000FFFFFFFF000E0E408E
:1026F000000000200B0000000100000000000000AE
:1027000004000000FFFFFFFF00100E4000800000EB
:102710000C000000010000000000000004000000A8
:10272000FFFFFFFF00100E40004000000C00000003
:10273000010000000000000004000000FFFFFFFF98
:10274000000E0E40030000000B000000010000001E
:102750000000000005000000FFFFFFFF00100E401A
:1027600000C000000C00000001000000000000009C
:1027700005000000FFFFFFFF000000000000000058
:102780000000000000000000000000000000000049
:10279000FFFFFFFF00000000080000001000000025
:1027A0001800000040000000500000006000000021
:1027B00070000000000200004002000080020000E3
:1027C000C00200000003000040030000800300007E
:1027D000C003000000000000000000000000000036
:1027E0008D0908008D1308001D0908004B09080019
:1027F0002F09080075090800B10A0800E10908005E
:10280000190908000000000000000000000000009E
:102810008D0908008D1308001D0908004B090800E8
:102820002F09080075090800130B0800E1090800CA
:10283000190908000000000041726475696E6F207C
:1028400044756500120100020000004041233E0073
:1028500000010102000100003220000036390000B2
:1028600066300000663100003639000004030904B8
:10287000000000000000000000AAAAAAAAAAAAAAB2
:10288000AAEEEEEEEEEEEEEEEEFEFFFFFFFFFFFF36
:10289000FFFFFFFFFF7FBFDFEFF7FBFDFC7EBFDF2A
:1028A000EFF7FBFD7E41726475696E6F204C4C43FF
:1028B00000120100020200004041233E000001011D
:1028C0000200010A060002000000400100000000B2
:1028D00000000000000000000000000000000000F8
:1028E00025140800F9140800ED1308003D14080031
:1028F0000514080081140800891408000000000075
:10290000080B00020202010009040000010202009B
:10291000000524001001052401010104240206051C
:1029200024060001070581031000100904010002BC
:102930000A0000000705020240000007058302406C
:102940000000080B0002020201000904000001025D
:1029500002000005240010010524010101042402E5
:102960000605240600010705810310001009040173
:1029700000020A00000007050202000200070583AA
:102980000200020000000000000000000000000043
:10299000CD1508008D1308008916080011170800CE
:1029A0007517080000000000000000000000000093
:1029B0002A2B28000000000000000000000000009A
:1029C00000000000000000002C9EB4A0A1A2A434CE
:1029D000A6A7A5AE362D3738271E1F202122232477
:1029E0002526B333B62EB7B89F8485868788898A13
:1029F0008B8C8D8E8F909192939495969798999AAF
:102A00009B9C9D2F3130A3AD350405060708090AAC
:102A10000B0C0D0E0F101112131415161718191A8E
:102A20001B1C1DAFB1B0B50009040200010300007A
:102A3000000921010100012265000705840340000F
:102A40000105010902A1010901A10085010509197A
:102A50000129031500250195037501810295017572
:102A600005810305010930093109381581257F7574
:102A70000895038106C0C005010906A1018502056C
:102A80000719E029E71500250175019508810295D0
:102A90000175088103950675081500256505071958
:102AA0000029658100C0000043000000600007208D
:102AB000F8B500BFF8BC08BC9E467047711C080002
:102AC00019010800B5020800CD080800B90D08007A
:102AD000B11508008D170800F8B500BFF8BC08BC98
:082AE0009E467047F500080056
:102AE80072B6064B9A68D107FBD5054A5A609A68B0
:102AF800D207FCD5034A044B1A60FEE7000A0E40D1
:102B08000C01005A050000A5001A0E4000093D00FE
:102B18000200000003000000040000000D00000097
:102B28000C0000000B000000FFFFFFFF00E10000A9
:102B38000000080001010000010000000000000082
:102B4800000000004C030720B40307201C040720E2
:102B5800000000000000000000000000000000006D
:102B6800000000000000000000000000000000005D
:102B780000000000A82A0800000000000000000073
:102B8800000000000000000000000000000000003D
:102B9800000000000000000000000000000000002D
:102BA800000000000000000000000000000000001D
:102BB800000000000000000000000000000000000D
:102BC80000000000000000000000000000000000FD
:102BD80000000000000000000000000000000000ED
:102BE80000000000000000000100000000000000DC
:102BF8000E33CDAB34126DE6ECDE05000B000000A1
:102C080000000000000000000000000000000000BC
:102C180000000000000000000000000000000000AC
:102C2800000000000000000000000000000000009C
:102C3800000000000000000000000000000000008C
:0400000380000675FE
:00000001FF
